{
  "_format": "hh-sol-artifact-1",
  "contractName": "MarketAPI",
  "sourceName": "contracts/filecoinMockAPIs/MarketAPI.sol",
  "abi": [
    {
      "inputs": [
        {
          "components": [
            {
              "internalType": "string",
              "name": "provider_or_client",
              "type": "string"
            }
          ],
          "internalType": "struct MarketTypes.AddBalanceParams",
          "name": "params",
          "type": "tuple"
        }
      ],
      "name": "add_balance",
      "outputs": [],
      "stateMutability": "payable",
      "type": "function"
    },
    {
      "inputs": [
        {
          "components": [
            {
              "internalType": "uint64",
              "name": "id",
              "type": "uint64"
            },
            {
              "internalType": "string",
              "name": "cid",
              "type": "string"
            },
            {
              "internalType": "uint64",
              "name": "size",
              "type": "uint64"
            },
            {
              "internalType": "bool",
              "name": "verified",
              "type": "bool"
            },
            {
              "internalType": "string",
              "name": "client",
              "type": "string"
            },
            {
              "internalType": "string",
              "name": "provider",
              "type": "string"
            },
            {
              "internalType": "string",
              "name": "label",
              "type": "string"
            },
            {
              "internalType": "int64",
              "name": "start",
              "type": "int64"
            },
            {
              "internalType": "int64",
              "name": "end",
              "type": "int64"
            },
            {
              "internalType": "uint256",
              "name": "price_per_epoch",
              "type": "uint256"
            },
            {
              "internalType": "uint256",
              "name": "provider_collateral",
              "type": "uint256"
            },
            {
              "internalType": "uint256",
              "name": "client_collateral",
              "type": "uint256"
            },
            {
              "internalType": "int64",
              "name": "activated",
              "type": "int64"
            },
            {
              "internalType": "int64",
              "name": "terminated",
              "type": "int64"
            }
          ],
          "internalType": "struct MarketTypes.MockDeal",
          "name": "mockDeal",
          "type": "tuple"
        }
      ],
      "name": "add_deals",
      "outputs": [],
      "stateMutability": "nonpayable",
      "type": "function"
    },
    {
      "inputs": [
        {
          "internalType": "string",
          "name": "addr",
          "type": "string"
        }
      ],
      "name": "get_balance",
      "outputs": [
        {
          "components": [
            {
              "internalType": "uint256",
              "name": "balance",
              "type": "uint256"
            },
            {
              "internalType": "uint256",
              "name": "locked",
              "type": "uint256"
            }
          ],
          "internalType": "struct MarketTypes.GetBalanceReturn",
          "name": "",
          "type": "tuple"
        }
      ],
      "stateMutability": "view",
      "type": "function"
    },
    {
      "inputs": [
        {
          "components": [
            {
              "internalType": "uint64",
              "name": "id",
              "type": "uint64"
            }
          ],
          "internalType": "struct MarketTypes.GetDealActivationParams",
          "name": "params",
          "type": "tuple"
        }
      ],
      "name": "get_deal_activation",
      "outputs": [
        {
          "components": [
            {
              "internalType": "int64",
              "name": "activated",
              "type": "int64"
            },
            {
              "internalType": "int64",
              "name": "terminated",
              "type": "int64"
            }
          ],
          "internalType": "struct MarketTypes.GetDealActivationReturn",
          "name": "",
          "type": "tuple"
        }
      ],
      "stateMutability": "view",
      "type": "function"
    },
    {
      "inputs": [
        {
          "components": [
            {
              "internalType": "uint64",
              "name": "id",
              "type": "uint64"
            }
          ],
          "internalType": "struct MarketTypes.GetDealClientParams",
          "name": "params",
          "type": "tuple"
        }
      ],
      "name": "get_deal_client",
      "outputs": [
        {
          "components": [
            {
              "internalType": "string",
              "name": "client",
              "type": "string"
            }
          ],
          "internalType": "struct MarketTypes.GetDealClientReturn",
          "name": "",
          "type": "tuple"
        }
      ],
      "stateMutability": "view",
      "type": "function"
    },
    {
      "inputs": [
        {
          "components": [
            {
              "internalType": "uint64",
              "name": "id",
              "type": "uint64"
            }
          ],
          "internalType": "struct MarketTypes.GetDealClientCollateralParams",
          "name": "params",
          "type": "tuple"
        }
      ],
      "name": "get_deal_client_collateral",
      "outputs": [
        {
          "components": [
            {
              "internalType": "uint256",
              "name": "collateral",
              "type": "uint256"
            }
          ],
          "internalType": "struct MarketTypes.GetDealClientCollateralReturn",
          "name": "",
          "type": "tuple"
        }
      ],
      "stateMutability": "view",
      "type": "function"
    },
    {
      "inputs": [
        {
          "components": [
            {
              "internalType": "uint64",
              "name": "id",
              "type": "uint64"
            }
          ],
          "internalType": "struct MarketTypes.GetDealDataCommitmentParams",
          "name": "params",
          "type": "tuple"
        }
      ],
      "name": "get_deal_data_commitment",
      "outputs": [
        {
          "components": [
            {
              "internalType": "bytes",
              "name": "data",
              "type": "bytes"
            },
            {
              "internalType": "uint64",
              "name": "size",
              "type": "uint64"
            }
          ],
          "internalType": "struct MarketTypes.GetDealDataCommitmentReturn",
          "name": "",
          "type": "tuple"
        }
      ],
      "stateMutability": "view",
      "type": "function"
    },
    {
      "inputs": [
        {
          "components": [
            {
              "internalType": "uint64",
              "name": "id",
              "type": "uint64"
            }
          ],
          "internalType": "struct MarketTypes.GetDealLabelParams",
          "name": "params",
          "type": "tuple"
        }
      ],
      "name": "get_deal_label",
      "outputs": [
        {
          "components": [
            {
              "internalType": "string",
              "name": "label",
              "type": "string"
            }
          ],
          "internalType": "struct MarketTypes.GetDealLabelReturn",
          "name": "",
          "type": "tuple"
        }
      ],
      "stateMutability": "view",
      "type": "function"
    },
    {
      "inputs": [
        {
          "components": [
            {
              "internalType": "uint64",
              "name": "id",
              "type": "uint64"
            }
          ],
          "internalType": "struct MarketTypes.GetDealProviderParams",
          "name": "params",
          "type": "tuple"
        }
      ],
      "name": "get_deal_provider",
      "outputs": [
        {
          "components": [
            {
              "internalType": "string",
              "name": "provider",
              "type": "string"
            }
          ],
          "internalType": "struct MarketTypes.GetDealProviderReturn",
          "name": "",
          "type": "tuple"
        }
      ],
      "stateMutability": "view",
      "type": "function"
    },
    {
      "inputs": [
        {
          "components": [
            {
              "internalType": "uint64",
              "name": "id",
              "type": "uint64"
            }
          ],
          "internalType": "struct MarketTypes.GetDealProviderCollateralParams",
          "name": "params",
          "type": "tuple"
        }
      ],
      "name": "get_deal_provider_collateral",
      "outputs": [
        {
          "components": [
            {
              "internalType": "uint256",
              "name": "collateral",
              "type": "uint256"
            }
          ],
          "internalType": "struct MarketTypes.GetDealProviderCollateralReturn",
          "name": "",
          "type": "tuple"
        }
      ],
      "stateMutability": "view",
      "type": "function"
    },
    {
      "inputs": [
        {
          "components": [
            {
              "internalType": "uint64",
              "name": "id",
              "type": "uint64"
            }
          ],
          "internalType": "struct MarketTypes.GetDealTermParams",
          "name": "params",
          "type": "tuple"
        }
      ],
      "name": "get_deal_term",
      "outputs": [
        {
          "components": [
            {
              "internalType": "int64",
              "name": "start",
              "type": "int64"
            },
            {
              "internalType": "int64",
              "name": "end",
              "type": "int64"
            }
          ],
          "internalType": "struct MarketTypes.GetDealTermReturn",
          "name": "",
          "type": "tuple"
        }
      ],
      "stateMutability": "view",
      "type": "function"
    },
    {
      "inputs": [
        {
          "components": [
            {
              "internalType": "uint64",
              "name": "id",
              "type": "uint64"
            }
          ],
          "internalType": "struct MarketTypes.GetDealEpochPriceParams",
          "name": "params",
          "type": "tuple"
        }
      ],
      "name": "get_deal_total_price",
      "outputs": [
        {
          "components": [
            {
              "internalType": "uint256",
              "name": "price_per_epoch",
              "type": "uint256"
            }
          ],
          "internalType": "struct MarketTypes.GetDealEpochPriceReturn",
          "name": "",
          "type": "tuple"
        }
      ],
      "stateMutability": "view",
      "type": "function"
    },
    {
      "inputs": [
        {
          "components": [
            {
              "internalType": "uint64",
              "name": "id",
              "type": "uint64"
            }
          ],
          "internalType": "struct MarketTypes.GetDealVerifiedParams",
          "name": "params",
          "type": "tuple"
        }
      ],
      "name": "get_deal_verified",
      "outputs": [
        {
          "components": [
            {
              "internalType": "bool",
              "name": "verified",
              "type": "bool"
            }
          ],
          "internalType": "struct MarketTypes.GetDealVerifiedReturn",
          "name": "",
          "type": "tuple"
        }
      ],
      "stateMutability": "view",
      "type": "function"
    },
    {
      "inputs": [],
      "name": "get_deals_of_user",
      "outputs": [
        {
          "components": [
            {
              "internalType": "uint64",
              "name": "id",
              "type": "uint64"
            },
            {
              "internalType": "string",
              "name": "cid",
              "type": "string"
            },
            {
              "internalType": "uint64",
              "name": "size",
              "type": "uint64"
            },
            {
              "internalType": "bool",
              "name": "verified",
              "type": "bool"
            },
            {
              "internalType": "string",
              "name": "client",
              "type": "string"
            },
            {
              "internalType": "string",
              "name": "provider",
              "type": "string"
            },
            {
              "internalType": "string",
              "name": "label",
              "type": "string"
            },
            {
              "internalType": "int64",
              "name": "start",
              "type": "int64"
            },
            {
              "internalType": "int64",
              "name": "end",
              "type": "int64"
            },
            {
              "internalType": "uint256",
              "name": "price_per_epoch",
              "type": "uint256"
            },
            {
              "internalType": "uint256",
              "name": "provider_collateral",
              "type": "uint256"
            },
            {
              "internalType": "uint256",
              "name": "client_collateral",
              "type": "uint256"
            },
            {
              "internalType": "int64",
              "name": "activated",
              "type": "int64"
            },
            {
              "internalType": "int64",
              "name": "terminated",
              "type": "int64"
            }
          ],
          "internalType": "struct MarketTypes.MockDeal[]",
          "name": "",
          "type": "tuple[]"
        }
      ],
      "stateMutability": "view",
      "type": "function"
    },
    {
      "inputs": [
        {
          "internalType": "bytes",
          "name": "raw_auth_params",
          "type": "bytes"
        },
        {
          "internalType": "address",
          "name": "callee",
          "type": "address"
        }
      ],
      "name": "publish_storage_deals",
      "outputs": [],
      "stateMutability": "nonpayable",
      "type": "function"
    },
    {
      "inputs": [
        {
          "components": [
            {
              "internalType": "string",
              "name": "provider_or_client",
              "type": "string"
            },
            {
              "internalType": "uint256",
              "name": "tokenAmount",
              "type": "uint256"
            }
          ],
          "internalType": "struct MarketTypes.WithdrawBalanceParams",
          "name": "params",
          "type": "tuple"
        }
      ],
      "name": "withdraw_balance",
      "outputs": [
        {
          "components": [
            {
              "internalType": "uint256",
              "name": "amount_withdrawn",
              "type": "uint256"
            }
          ],
          "internalType": "struct MarketTypes.WithdrawBalanceReturn",
          "name": "",
          "type": "tuple"
        }
      ],
      "stateMutability": "nonpayable",
      "type": "function"
    }
  ],
  "bytecode": "0x608060405234801561001057600080fd5b506134bc806100206000396000f3fe6080604052600436106100f35760003560e01c80638777b7c81161008a578063ad36f18411610059578063ad36f184146103ac578063ebf66ef1146103e9578063f241560c14610405578063f617a55814610442576100f3565b80638777b7c8146102b85780638b7f02fd146102f5578063991e04a4146103325780639f4b7c7d1461036f576100f3565b8063412a4b9a116100c6578063412a4b9a146101c457806355d95609146102015780635c4ddef31461023e57806365a9b4a01461027b576100f3565b806313178dc1146100f85780631a2811e7146101355780632a8139bd14610172578063344096421461019b575b600080fd5b34801561010457600080fd5b5061011f600480360381019061011a9190611b32565b61046d565b60405161012c9190611ba6565b60405180910390f35b34801561014157600080fd5b5061015c60048036038101906101579190611c3d565b610550565b6040516101699190611c86565b60405180910390f35b34801561017e57600080fd5b5061019960048036038101906101949190611cc6565b6105f5565b005b3480156101a757600080fd5b506101c260048036038101906101bd9190611e0e565b610721565b005b3480156101d057600080fd5b506101eb60048036038101906101e69190611ea6565b610869565b6040516101f89190611eef565b60405180910390f35b34801561020d57600080fd5b5061022860048036038101906102239190611f46565b61090e565b604051610235919061201c565b60405180910390f35b34801561024a57600080fd5b506102656004803603810190610260919061207a565b610a3b565b60405161027291906120de565b60405180910390f35b34801561028757600080fd5b506102a2600480360381019061029d91906120f9565b610aef565b6040516102af9190612171565b60405180910390f35b3480156102c457600080fd5b506102df60048036038101906102da91906121c8565b610b37565b6040516102ec9190612211565b60405180910390f35b34801561030157600080fd5b5061031c60048036038101906103179190612268565b610bdc565b60405161032991906122bf565b60405180910390f35b34801561033e57600080fd5b506103596004803603810190610354919061231d565b610d09565b60405161036691906123eb565b60405180910390f35b34801561037b57600080fd5b5061039660048036038101906103919190612449565b610e07565b6040516103a391906124a0565b60405180910390f35b3480156103b857600080fd5b506103d360048036038101906103ce91906124fe565b610f34565b6040516103e09190612576565b60405180910390f35b61040360048036038101906103fe91906125e9565b61102d565b005b34801561041157600080fd5b5061042c6004803603810190610427919061266e565b611069565b60405161043991906126ca565b60405180910390f35b34801561044e57600080fd5b50610457611162565b60405161046491906128ea565b60405180910390f35b610475611783565b600080836000015160405161048a9190612948565b90815260200160405180910390205490508260200151600084600001516040516104b49190612948565b90815260200160405180910390205410610511578260200151600084600001516040516104e19190612948565b908152602001604051809103902060008282546104fe919061298e565b9250508190555082602001519050610539565b60008084600001516040516105269190612948565b9081526020016040518091039020819055505b604051806020016040528082815250915050919050565b610558611796565b600060016000846000015167ffffffffffffffff1667ffffffffffffffff16815260200190815260200160002060000160009054906101000a900467ffffffffffffffff1667ffffffffffffffff16116105b157600080fd5b604051806020016040528060016000856000015167ffffffffffffffff1667ffffffffffffffff168152602001908152602001600020600801548152509050919050565b806001600083600001602081019061060d91906129c2565b67ffffffffffffffff1667ffffffffffffffff168152602001908152602001600020818161063b91906131bc565b905050600381600001602081019061065391906129c2565b90806001815401808255809150506001900390600052602060002090600491828204019190066008029091909190916101000a81548167ffffffffffffffff021916908367ffffffffffffffff16021790555033600260008360000160208101906106be91906129c2565b67ffffffffffffffff1667ffffffffffffffff16815260200190815260200160002060006101000a81548173ffffffffffffffffffffffffffffffffffffffff021916908373ffffffffffffffffffffffffffffffffffffffff16021790555050565b60008173ffffffffffffffffffffffffffffffffffffffff166000639d8b067885604051602401610754939291906132a7565b6040516020818303038152906040527f868e10c4000000000000000000000000000000000000000000000000000000007bffffffffffffffffffffffffffffffffffffffffffffffffffffffff19166020820180517bffffffffffffffffffffffffffffffffffffffffffffffffffffffff83818316178352505050506040516107de9190613321565b6000604051808303816000865af19150503d806000811461081b576040519150601f19603f3d011682016040523d82523d6000602084013e610820565b606091505b5050905080610864576040517f08c379a000000000000000000000000000000000000000000000000000000000815260040161085b906133bb565b60405180910390fd5b505050565b6108716117a9565b600060016000846000015167ffffffffffffffff1667ffffffffffffffff16815260200190815260200160002060000160009054906101000a900467ffffffffffffffff1667ffffffffffffffff16116108ca57600080fd5b604051806020016040528060016000856000015167ffffffffffffffff1667ffffffffffffffff168152602001908152602001600020600701548152509050919050565b6109166117bc565b600060016000846000015167ffffffffffffffff1667ffffffffffffffff16815260200190815260200160002060000160009054906101000a900467ffffffffffffffff1667ffffffffffffffff161161096f57600080fd5b604051806020016040528060016000856000015167ffffffffffffffff1667ffffffffffffffff16815260200190815260200160002060040180546109b390612b41565b80601f01602080910402602001604051908101604052809291908181526020018280546109df90612b41565b8015610a2c5780601f10610a0157610100808354040283529160200191610a2c565b820191906000526020600020905b815481529060010190602001808311610a0f57829003601f168201915b50505050508152509050919050565b610a436117cf565b600060016000846000015167ffffffffffffffff1667ffffffffffffffff16815260200190815260200160002060000160009054906101000a900467ffffffffffffffff1667ffffffffffffffff1611610a9c57600080fd5b604051806020016040528060016000856000015167ffffffffffffffff1667ffffffffffffffff16815260200190815260200160002060020160089054906101000a900460ff1615158152509050919050565b610af76117e4565b60008083604051610b089190612948565b908152602001604051809103902054905060405180604001604052808281526020016000815250915050919050565b610b3f6117fe565b600060016000846000015167ffffffffffffffff1667ffffffffffffffff16815260200190815260200160002060000160009054906101000a900467ffffffffffffffff1667ffffffffffffffff1611610b9857600080fd5b604051806020016040528060016000856000015167ffffffffffffffff1667ffffffffffffffff168152602001908152602001600020600901548152509050919050565b610be4611811565b600060016000846000015167ffffffffffffffff1667ffffffffffffffff16815260200190815260200160002060000160009054906101000a900467ffffffffffffffff1667ffffffffffffffff1611610c3d57600080fd5b604051806020016040528060016000856000015167ffffffffffffffff1667ffffffffffffffff1681526020019081526020016000206003018054610c8190612b41565b80601f0160208091040260200160405190810160405280929190818152602001828054610cad90612b41565b8015610cfa5780601f10610ccf57610100808354040283529160200191610cfa565b820191906000526020600020905b815481529060010190602001808311610cdd57829003601f168201915b50505050508152509050919050565b610d11611824565b600060016000846000015167ffffffffffffffff1667ffffffffffffffff16815260200190815260200160002060000160009054906101000a900467ffffffffffffffff1667ffffffffffffffff1611610d6a57600080fd5b60405180604001604052806040518060400160405280600881526020017f3078313131313131000000000000000000000000000000000000000000000000815250815260200160016000856000015167ffffffffffffffff1667ffffffffffffffff16815260200190815260200160002060020160009054906101000a900467ffffffffffffffff1667ffffffffffffffff168152509050919050565b610e0f611848565b600060016000846000015167ffffffffffffffff1667ffffffffffffffff16815260200190815260200160002060000160009054906101000a900467ffffffffffffffff1667ffffffffffffffff1611610e6857600080fd5b604051806020016040528060016000856000015167ffffffffffffffff1667ffffffffffffffff1681526020019081526020016000206005018054610eac90612b41565b80601f0160208091040260200160405190810160405280929190818152602001828054610ed890612b41565b8015610f255780601f10610efa57610100808354040283529160200191610f25565b820191906000526020600020905b815481529060010190602001808311610f0857829003601f168201915b50505050508152509050919050565b610f3c61185b565b600060016000846000015167ffffffffffffffff1667ffffffffffffffff16815260200190815260200160002060000160009054906101000a900467ffffffffffffffff1667ffffffffffffffff1611610f9557600080fd5b604051806040016040528060016000856000015167ffffffffffffffff1667ffffffffffffffff16815260200190815260200160002060060160009054906101000a900460070b60070b815260200160016000856000015167ffffffffffffffff1667ffffffffffffffff16815260200190815260200160002060060160089054906101000a900460070b60070b8152509050919050565b34600082600001516040516110429190612948565b9081526020016040518091039020600082825461105f91906133db565b9250508190555050565b61107161187b565b600060016000846000015167ffffffffffffffff1667ffffffffffffffff16815260200190815260200160002060000160009054906101000a900467ffffffffffffffff1667ffffffffffffffff16116110ca57600080fd5b604051806040016040528060016000856000015167ffffffffffffffff1667ffffffffffffffff168152602001908152602001600020600a0160009054906101000a900460070b60070b815260200160016000856000015167ffffffffffffffff1667ffffffffffffffff168152602001908152602001600020600a0160089054906101000a900460070b60070b8152509050919050565b606060008060005b600380549050811015611250573373ffffffffffffffffffffffffffffffffffffffff1660026000600384815481106111a6576111a561340f565b5b90600052602060002090600491828204019190066008029054906101000a900467ffffffffffffffff1667ffffffffffffffff1667ffffffffffffffff16815260200190815260200160002060009054906101000a900473ffffffffffffffffffffffffffffffffffffffff1673ffffffffffffffffffffffffffffffffffffffff160361123d5782806112399061343e565b9350505b80806112489061343e565b91505061116a565b5060008267ffffffffffffffff81111561126d5761126c611956565b5b6040519080825280602002602001820160405280156112a657816020015b61129361189b565b81526020019060019003908161128b5790505b50905060005b600380549050811015611779573373ffffffffffffffffffffffffffffffffffffffff1660026000600384815481106112e8576112e761340f565b5b90600052602060002090600491828204019190066008029054906101000a900467ffffffffffffffff1667ffffffffffffffff1667ffffffffffffffff16815260200190815260200160002060009054906101000a900473ffffffffffffffffffffffffffffffffffffffff1673ffffffffffffffffffffffffffffffffffffffff16036117665760016000600383815481106113885761138761340f565b5b90600052602060002090600491828204019190066008029054906101000a900467ffffffffffffffff1667ffffffffffffffff1667ffffffffffffffff168152602001908152602001600020604051806101c00160405290816000820160009054906101000a900467ffffffffffffffff1667ffffffffffffffff1667ffffffffffffffff16815260200160018201805461142290612b41565b80601f016020809104026020016040519081016040528092919081815260200182805461144e90612b41565b801561149b5780601f106114705761010080835404028352916020019161149b565b820191906000526020600020905b81548152906001019060200180831161147e57829003601f168201915b505050505081526020016002820160009054906101000a900467ffffffffffffffff1667ffffffffffffffff1667ffffffffffffffff1681526020016002820160089054906101000a900460ff1615151515815260200160038201805461150190612b41565b80601f016020809104026020016040519081016040528092919081815260200182805461152d90612b41565b801561157a5780601f1061154f5761010080835404028352916020019161157a565b820191906000526020600020905b81548152906001019060200180831161155d57829003601f168201915b5050505050815260200160048201805461159390612b41565b80601f01602080910402602001604051908101604052809291908181526020018280546115bf90612b41565b801561160c5780601f106115e15761010080835404028352916020019161160c565b820191906000526020600020905b8154815290600101906020018083116115ef57829003601f168201915b5050505050815260200160058201805461162590612b41565b80601f016020809104026020016040519081016040528092919081815260200182805461165190612b41565b801561169e5780601f106116735761010080835404028352916020019161169e565b820191906000526020600020905b81548152906001019060200180831161168157829003601f168201915b505050505081526020016006820160009054906101000a900460070b60070b60070b81526020016006820160089054906101000a900460070b60070b60070b8152602001600782015481526020016008820154815260200160098201548152602001600a820160009054906101000a900460070b60070b60070b8152602001600a820160089054906101000a900460070b60070b60070b8152505082848151811061174c5761174b61340f565b5b602002602001018190525082806117629061343e565b9350505b80806117719061343e565b9150506112ac565b5080935050505090565b6040518060200160405280600081525090565b6040518060200160405280600081525090565b6040518060200160405280600081525090565b6040518060200160405280606081525090565b60405180602001604052806000151581525090565b604051806040016040528060008152602001600081525090565b6040518060200160405280600081525090565b6040518060200160405280606081525090565b604051806040016040528060608152602001600067ffffffffffffffff1681525090565b6040518060200160405280606081525090565b6040518060400160405280600060070b8152602001600060070b81525090565b6040518060400160405280600060070b8152602001600060070b81525090565b604051806101c00160405280600067ffffffffffffffff16815260200160608152602001600067ffffffffffffffff168152602001600015158152602001606081526020016060815260200160608152602001600060070b8152602001600060070b8152602001600081526020016000815260200160008152602001600060070b8152602001600060070b81525090565b6000604051905090565b600080fd5b600080fd5b600080fd5b6000601f19601f8301169050919050565b7f4e487b7100000000000000000000000000000000000000000000000000000000600052604160045260246000fd5b61198e82611945565b810181811067ffffffffffffffff821117156119ad576119ac611956565b5b80604052505050565b60006119c061192c565b90506119cc8282611985565b919050565b600080fd5b600080fd5b600080fd5b600067ffffffffffffffff8211156119fb576119fa611956565b5b611a0482611945565b9050602081019050919050565b82818337600083830152505050565b6000611a33611a2e846119e0565b6119b6565b905082815260208101848484011115611a4f57611a4e6119db565b5b611a5a848285611a11565b509392505050565b600082601f830112611a7757611a766119d6565b5b8135611a87848260208601611a20565b91505092915050565b6000819050919050565b611aa381611a90565b8114611aae57600080fd5b50565b600081359050611ac081611a9a565b92915050565b600060408284031215611adc57611adb611940565b5b611ae660406119b6565b9050600082013567ffffffffffffffff811115611b0657611b056119d1565b5b611b1284828501611a62565b6000830152506020611b2684828501611ab1565b60208301525092915050565b600060208284031215611b4857611b47611936565b5b600082013567ffffffffffffffff811115611b6657611b6561193b565b5b611b7284828501611ac6565b91505092915050565b611b8481611a90565b82525050565b602082016000820151611ba06000850182611b7b565b50505050565b6000602082019050611bbb6000830184611b8a565b92915050565b600067ffffffffffffffff82169050919050565b611bde81611bc1565b8114611be957600080fd5b50565b600081359050611bfb81611bd5565b92915050565b600060208284031215611c1757611c16611940565b5b611c2160206119b6565b90506000611c3184828501611bec565b60008301525092915050565b600060208284031215611c5357611c52611936565b5b6000611c6184828501611c01565b91505092915050565b602082016000820151611c806000850182611b7b565b50505050565b6000602082019050611c9b6000830184611c6a565b92915050565b600080fd5b60006101c08284031215611cbd57611cbc611ca1565b5b81905092915050565b600060208284031215611cdc57611cdb611936565b5b600082013567ffffffffffffffff811115611cfa57611cf961193b565b5b611d0684828501611ca6565b91505092915050565b600067ffffffffffffffff821115611d2a57611d29611956565b5b611d3382611945565b9050602081019050919050565b6000611d53611d4e84611d0f565b6119b6565b905082815260208101848484011115611d6f57611d6e6119db565b5b611d7a848285611a11565b509392505050565b600082601f830112611d9757611d966119d6565b5b8135611da7848260208601611d40565b91505092915050565b600073ffffffffffffffffffffffffffffffffffffffff82169050919050565b6000611ddb82611db0565b9050919050565b611deb81611dd0565b8114611df657600080fd5b50565b600081359050611e0881611de2565b92915050565b60008060408385031215611e2557611e24611936565b5b600083013567ffffffffffffffff811115611e4357611e4261193b565b5b611e4f85828601611d82565b9250506020611e6085828601611df9565b9150509250929050565b600060208284031215611e8057611e7f611940565b5b611e8a60206119b6565b90506000611e9a84828501611bec565b60008301525092915050565b600060208284031215611ebc57611ebb611936565b5b6000611eca84828501611e6a565b91505092915050565b602082016000820151611ee96000850182611b7b565b50505050565b6000602082019050611f046000830184611ed3565b92915050565b600060208284031215611f2057611f1f611940565b5b611f2a60206119b6565b90506000611f3a84828501611bec565b60008301525092915050565b600060208284031215611f5c57611f5b611936565b5b6000611f6a84828501611f0a565b91505092915050565b600081519050919050565b600082825260208201905092915050565b60005b83811015611fad578082015181840152602081019050611f92565b60008484015250505050565b6000611fc482611f73565b611fce8185611f7e565b9350611fde818560208601611f8f565b611fe781611945565b840191505092915050565b6000602083016000830151848203600086015261200f8282611fb9565b9150508091505092915050565b600060208201905081810360008301526120368184611ff2565b905092915050565b60006020828403121561205457612053611940565b5b61205e60206119b6565b9050600061206e84828501611bec565b60008301525092915050565b6000602082840312156120905761208f611936565b5b600061209e8482850161203e565b91505092915050565b60008115159050919050565b6120bc816120a7565b82525050565b6020820160008201516120d860008501826120b3565b50505050565b60006020820190506120f360008301846120c2565b92915050565b60006020828403121561210f5761210e611936565b5b600082013567ffffffffffffffff81111561212d5761212c61193b565b5b61213984828501611a62565b91505092915050565b6040820160008201516121586000850182611b7b565b50602082015161216b6020850182611b7b565b50505050565b60006040820190506121866000830184612142565b92915050565b6000602082840312156121a2576121a1611940565b5b6121ac60206119b6565b905060006121bc84828501611bec565b60008301525092915050565b6000602082840312156121de576121dd611936565b5b60006121ec8482850161218c565b91505092915050565b60208201600082015161220b6000850182611b7b565b50505050565b600060208201905061222660008301846121f5565b92915050565b60006020828403121561224257612241611940565b5b61224c60206119b6565b9050600061225c84828501611bec565b60008301525092915050565b60006020828403121561227e5761227d611936565b5b600061228c8482850161222c565b91505092915050565b600060208301600083015184820360008601526122b28282611fb9565b9150508091505092915050565b600060208201905081810360008301526122d98184612295565b905092915050565b6000602082840312156122f7576122f6611940565b5b61230160206119b6565b9050600061231184828501611bec565b60008301525092915050565b60006020828403121561233357612332611936565b5b6000612341848285016122e1565b91505092915050565b600081519050919050565b600082825260208201905092915050565b60006123718261234a565b61237b8185612355565b935061238b818560208601611f8f565b61239481611945565b840191505092915050565b6123a881611bc1565b82525050565b600060408301600083015184820360008601526123cb8282612366565b91505060208301516123e0602086018261239f565b508091505092915050565b6000602082019050818103600083015261240581846123ae565b905092915050565b60006020828403121561242357612422611940565b5b61242d60206119b6565b9050600061243d84828501611bec565b60008301525092915050565b60006020828403121561245f5761245e611936565b5b600061246d8482850161240d565b91505092915050565b600060208301600083015184820360008601526124938282611fb9565b9150508091505092915050565b600060208201905081810360008301526124ba8184612476565b905092915050565b6000602082840312156124d8576124d7611940565b5b6124e260206119b6565b905060006124f284828501611bec565b60008301525092915050565b60006020828403121561251457612513611936565b5b6000612522848285016124c2565b91505092915050565b60008160070b9050919050565b6125418161252b565b82525050565b60408201600082015161255d6000850182612538565b5060208201516125706020850182612538565b50505050565b600060408201905061258b6000830184612547565b92915050565b6000602082840312156125a7576125a6611940565b5b6125b160206119b6565b9050600082013567ffffffffffffffff8111156125d1576125d06119d1565b5b6125dd84828501611a62565b60008301525092915050565b6000602082840312156125ff576125fe611936565b5b600082013567ffffffffffffffff81111561261d5761261c61193b565b5b61262984828501612591565b91505092915050565b60006020828403121561264857612647611940565b5b61265260206119b6565b9050600061266284828501611bec565b60008301525092915050565b60006020828403121561268457612683611936565b5b600061269284828501612632565b91505092915050565b6040820160008201516126b16000850182612538565b5060208201516126c46020850182612538565b50505050565b60006040820190506126df600083018461269b565b92915050565b600081519050919050565b600082825260208201905092915050565b6000819050602082019050919050565b60006101c08301600083015161272a600086018261239f565b50602083015184820360208601526127428282611fb9565b9150506040830151612757604086018261239f565b50606083015161276a60608601826120b3565b50608083015184820360808601526127828282611fb9565b91505060a083015184820360a086015261279c8282611fb9565b91505060c083015184820360c08601526127b68282611fb9565b91505060e08301516127cb60e0860182612538565b506101008301516127e0610100860182612538565b506101208301516127f5610120860182611b7b565b5061014083015161280a610140860182611b7b565b5061016083015161281f610160860182611b7b565b50610180830151612834610180860182612538565b506101a08301516128496101a0860182612538565b508091505092915050565b60006128608383612711565b905092915050565b6000602082019050919050565b6000612880826126e5565b61288a81856126f0565b93508360208202850161289c85612701565b8060005b858110156128d857848403895281516128b98582612854565b94506128c483612868565b925060208a019950506001810190506128a0565b50829750879550505050505092915050565b600060208201905081810360008301526129048184612875565b905092915050565b600081905092915050565b600061292282611f73565b61292c818561290c565b935061293c818560208601611f8f565b80840191505092915050565b60006129548284612917565b915081905092915050565b7f4e487b7100000000000000000000000000000000000000000000000000000000600052601160045260246000fd5b600061299982611a90565b91506129a483611a90565b92508282039050818111156129bc576129bb61295f565b5b92915050565b6000602082840312156129d8576129d7611936565b5b60006129e684828501611bec565b91505092915050565b600081356129fc81611bd5565b80915050919050565b60008160001b9050919050565b600067ffffffffffffffff612a2684612a05565b9350801983169250808416831791505092915050565b6000819050919050565b6000612a61612a5c612a5784611bc1565b612a3c565b611bc1565b9050919050565b6000819050919050565b612a7b82612a46565b612a8e612a8782612a68565b8354612a12565b8255505050565b600080fd5b600080fd5b600080fd5b60008083356001602003843603038112612ac157612ac0612a95565b5b80840192508235915067ffffffffffffffff821115612ae357612ae2612a9a565b5b602083019250600182023603831315612aff57612afe612a9f565b5b509250929050565b600082905092915050565b7f4e487b7100000000000000000000000000000000000000000000000000000000600052602260045260246000fd5b60006002820490506001821680612b5957607f821691505b602082108103612b6c57612b6b612b12565b5b50919050565b60008190508160005260206000209050919050565b60006020601f8301049050919050565b600082821b905092915050565b600060088302612bd47fffffffffffffffffffffffffffffffffffffffffffffffffffffffffffffffff82612b97565b612bde8683612b97565b95508019841693508086168417925050509392505050565b6000612c11612c0c612c0784611a90565b612a3c565b611a90565b9050919050565b6000819050919050565b612c2b83612bf6565b612c3f612c3782612c18565b848454612ba4565b825550505050565b600090565b612c54612c47565b612c5f818484612c22565b505050565b5b81811015612c8357612c78600082612c4c565b600181019050612c65565b5050565b601f821115612cc857612c9981612b72565b612ca284612b87565b81016020851015612cb1578190505b612cc5612cbd85612b87565b830182612c64565b50505b505050565b600082821c905092915050565b6000612ceb60001984600802612ccd565b1980831691505092915050565b6000612d048383612cda565b9150826002028217905092915050565b612d1e8383612b07565b67ffffffffffffffff811115612d3757612d36611956565b5b612d418254612b41565b612d4c828285612c87565b6000601f831160018114612d7b5760008415612d69578287013590505b612d738582612cf8565b865550612ddb565b601f198416612d8986612b72565b60005b82811015612db157848901358255600182019150602085019450602081019050612d8c565b86831015612dce5784890135612dca601f891682612cda565b8355505b6001600288020188555050505b50505050505050565b612def838383612d14565b505050565b612dfd816120a7565b8114612e0857600080fd5b50565b60008135612e1881612df4565b80915050919050565b60008160401b9050919050565b600068ff0000000000000000612e4384612e21565b9350801983169250808416831791505092915050565b6000612e64826120a7565b9050919050565b6000819050919050565b612e7e82612e59565b612e91612e8a82612e6b565b8354612e2e565b8255505050565b612ea18161252b565b8114612eac57600080fd5b50565b60008135612ebc81612e98565b80915050919050565b6000612ee0612edb612ed68461252b565b612a3c565b61252b565b9050919050565b6000819050919050565b612efa82612ec5565b612f0d612f0682612ee7565b8354612a12565b8255505050565b60006fffffffffffffffff0000000000000000612f3084612e21565b9350801983169250808416831791505092915050565b612f4f82612ec5565b612f62612f5b82612ee7565b8354612f14565b8255505050565b60008135612f7681611a9a565b80915050919050565b60007fffffffffffffffffffffffffffffffffffffffffffffffffffffffffffffffff612fab84612a05565b9350801983169250808416831791505092915050565b612fca82612bf6565b612fdd612fd682612c18565b8354612f7f565b8255505050565b600081016000830180612ff6816129ef565b90506130028184612a72565b50505060018101602083016130178185612aa4565b613022818386612de4565b50505050600281016040830180613038816129ef565b90506130448184612a72565b50505060028101606083018061305981612e0b565b90506130658184612e75565b505050600381016080830161307a8185612aa4565b613085818386612de4565b505050506004810160a0830161309b8185612aa4565b6130a6818386612de4565b505050506005810160c083016130bc8185612aa4565b6130c7818386612de4565b505050506006810160e08301806130dd81612eaf565b90506130e98184612ef1565b505050600681016101008301806130ff81612eaf565b905061310b8184612f46565b5050506007810161012083018061312181612f69565b905061312d8184612fc1565b5050506008810161014083018061314381612f69565b905061314f8184612fc1565b5050506009810161016083018061316581612f69565b90506131718184612fc1565b505050600a810161018083018061318781612eaf565b90506131938184612ef1565b505050600a81016101a08301806131a981612eaf565b90506131b58184612f46565b5050505050565b6131c68282612fe4565b5050565b6000819050919050565b600060ff82169050919050565b60006131fc6131f76131f2846131ca565b612a3c565b6131d4565b9050919050565b61320c816131e1565b82525050565b6000819050919050565b600063ffffffff82169050919050565b600061324761324261323d84613212565b612a3c565b61321c565b9050919050565b6132578161322c565b82525050565b600082825260208201905092915050565b60006132798261234a565b613283818561325d565b9350613293818560208601611f8f565b61329c81611945565b840191505092915050565b60006060820190506132bc6000830186613203565b6132c9602083018561324e565b81810360408301526132db818461326e565b9050949350505050565b600081905092915050565b60006132fb8261234a565b61330581856132e5565b9350613315818560208601611f8f565b80840191505092915050565b600061332d82846132f0565b915081905092915050565b600082825260208201905092915050565b7f636c69656e7420636f6e7472616374206661696c656420746f20617574686f7260008201527f697a65206465616c207075626c69736800000000000000000000000000000000602082015250565b60006133a5603083613338565b91506133b082613349565b604082019050919050565b600060208201905081810360008301526133d481613398565b9050919050565b60006133e682611a90565b91506133f183611a90565b92508282019050808211156134095761340861295f565b5b92915050565b7f4e487b7100000000000000000000000000000000000000000000000000000000600052603260045260246000fd5b600061344982611a90565b91507fffffffffffffffffffffffffffffffffffffffffffffffffffffffffffffffff820361347b5761347a61295f565b5b60018201905091905056fea264697066735822122061f02e771fd2981ebab70595a35dd732078921c0fb6c1f7719dace4851f7ecd364736f6c63430008110033",
  "linkReferences": {},
  "deployedLinkReferences": {}
}